:020000040800F2
:10000000588E012065990008F13E0008A13F0008C4
:10001000A93F0008AD3F0008B13F00080000000004
:10002000000000000000000000000000B53F0008D4
:10003000B73F000800000000C79B00083B9D000878
:100040007F9900087F9900087F9900087F99000830
:100050007F9900087F9900087F9900087F99000820
:100060007F9900087F9900087F9900087F99000810
:100070007F9900087F9900087F9900087F99000800
:100080007F9900087F9900087F9900087F990008F0
:10009000774C00087F9900087F9900087F99000835
:1000A0007F9900087F9900087F9900087F990008D0
:1000B0007F99000807AA010811A501087F99000887
:1000C0007F9900087F9900087F9900087F990008B0
:1000D0007F9900089D5E00087F9900087F990008BD
:1000E000C33F00087F9900087F9900087F990008A6
:1000F0007F9900087F9900087F9900087F99000880
:100100007F9900087F9900087F9900087F9900086F
:10011000535300087F9900087F9900087F990008D1
:10012000275000087F9900087F9900087F990008F0
:100130007F560008C53F00087F9900087F99000896
:100140004B4D00087F9900087F9900087F990008AF
:100150007F990008555600085B5500087F990008F4
:100160007F9900087F9900087F9900087F9900080F
:100170007F9900087F9900087F9900087F990008FF
:100180007F9900087F990008DFF80CD01DF0A2F8D5
:100190000048004793020008588E01204A48006832
:1001A0004FF47A72B0FBF2F0411EB1F1807F00D3C0
:1001B0001DE021F07F40401E4FF0E02250615017BB
:1001C0000F22002807DA13071D0E404B00F00F0422
:1001D000241F1D5503E013071C0E3D4B1C5400BF8C
:1001E00000204FF0E02290610720106100BF0A2339
:1001F000384A002138480BF0B2FE0D23374A00215F
:1002000037480BF0ACFE0B23364A002136480BF082
:10021000A6FE1B23354A002135480BF0A0FE1A2309
:10022000344A002134480BF09AFE1823334A002147
:1002300033480BF094FE0923324A002132480BF078
:100240008EFE0823314A002131480BF088FE22231C
:10025000304A002130480BF082FE19E000F0C2F96C
:100260004FF480712D4807F07AFB2D480068401C40
:100270002B49086008460068022805D12123294A35
:10028000002129480BF06BFE4FF47A700CF0C2F994
:10029000E4E710B503F002FC02F0CEFF0AF0EDF83F
:1002A0003B23224A0021AFF20B100BF058FE002036
:1002B0000CF069FA0AF0D2F94FF48071174807F090
:1002C00045FB002010BD00002C0F002018ED00E0C1
:1002D00000E400E06883002071170008287D0020FA
:1002E000690B0008E8760020C1090008E88F0020AB
:1002F000ED200008A8890020092000087C96002035
:10030000C32E000854B9002095320008E4BA00203A
:100310007539000824C10020793A0008000802401D
:100320000000002008460020B9C80108C8260020A7
:100330002DE9F84305460C46FE4800680BF0CCFC5E
:10034000002C02DD4FF0010802E0601E00F0FF0803
:10035000F9484078A04201DAF74844702879C0F3A0
:100360008100C0F104073A4605F1080168461CF017
:1003700088FC6979A87941EA002695F8079002F08F
:10038000A1FA46F60651701A8E426FD018DC46F676
:100390000251A6EB01008E422ED00ADCA6F5C04029
:1003A000243874D0012873D0A0F54060DD3870D1B6
:1003B00016E0012841D0022859D00328F7D16AE07D
:1003C000042867D006DC012875D0022874D00328E1
:1003D000EDD1A3E0052870D0B0F5BD7FE7D1EDE009
:1003E000009881B2601E00EBC00000EB4000D34AD1
:1003F00002EB00100180F2E0601E00EBC00000EB99
:100400004000CE4901EB001128894880601E00EBB6
:10041000C00000EB4000C94901EB0010408800EB30
:1004200080004004010C601E00EBC00000EB4000A7
:10043000C24A02EB00104180D1E00121601E00EBB6
:10044000C00000EB4000BD4A02EB001080F8A8118C
:10045000611E01EBC10101EB410102EB0111081D1D
:100460003A4605F108011CF00CFCB8E026E0611EDC
:1004700001EBC10101EB4101B04A02EB011101F1B5
:1004800008003A4605F108011CF0FBFBA7E075E007
:1004900084E0A3E052E0611E01EBC10101EB4101E8
:1004A000A64A02EB011101F10C003A4605F10801E0
:1004B0001CF0E7FB93E011E020E04FE0611E01EB50
:1004C000C10101EB41019D4A02EB011101F1100054
:1004D0003A4605F108011CF0D4FB80E0611E01EBF7
:1004E000C10101EB4101954A02EB011101F1140038
:1004F0003A4605F108011CF0C4FB70E0611E01EBF7
:10050000C10101EB41018D4A02EB011101F118001B
:100510003A4605F108011CF0B4FB60E0611E01EBF6
:10052000C10101EB4101854A02EB011101F11C00FF
:100530003A4605F108011CF0A4FB50E0611E01EBF6
:10054000C10101EB41017D4A02EB011101F12000E3
:100550003A4605F108011CF094FB40E0611E01EBF6
:10056000C10101EB4101754A02EB011101F12100CA
:100570003A4605F108011CF084FB30E0611E01EBF6
:10058000C10101EB41016D4A02EB011101F12400AF
:100590003A4605F108011CF074FB20E0611E01EBF6
:1005A000C10101EB4101654A02EB011101F1280093
:1005B0003A4605F108011CF064FB10E0611E01EBF6
:1005C000C10101EB41015D4A02EB011101F128007B
:1005D0003A4605F108011CF054FB00E000BF00BFE3
:1005E000BDE8F8832DE9F04FF3B0002072907190D0
:1005F000834670908046814682466F900027002493
:100600000025B8E005EBC50000EB40004B4901EBCD
:10061000001000884849A1F8400040441FFA80F8C3
:1006200005EBC50000EB4000444901EB0010408899
:100630004149A1F8500048441FFA80F905EBC50074
:1006400000EB40003D4901EB0010406A642190FB43
:10065000F1F080B23849A1F84C0050441FFA80FAFA
:1006600005EBC50000EB4000344901EB0010806A47
:10067000642190FBF1F080B22F49A1F84E006F99F0
:10068000084480B26F9005EBC50000EB40002B4999
:1006900001EB0010406828490444486405EBC5009C
:1006A00000EB4000254901EB001087682248806C70
:1006B000B84204D32048806CB0F17F4F01D91E4866
:1006C00087641E481C49486605EBC50000EB4000E6
:1006D0001A4901EB00134FF4D872194602A81CF016
:1006E000D0FA9DF8B001002814DD00201249496EAF
:1006F00005EBC50202EB420201EB021181F8A801F1
:100700000BF1010000F0FF0B0CF031F80C4941F83F
:1007100025001BE00CF02BF80190094850F825202B
:10072000104601991AF0E6F841F2883188420DDA54
:1007300008E00000F8000020A0990020AC3C002058
:10074000100000200BF1010000F0FF0B089820B909
:100750007098401CC0B2709003E07198401CC0B209
:100760007190079810F4E01F03D07298401CC0B23B
:100770007290681CC5B28F484078A8423FF742AFDC
:100780008C4880F802B07099C170729901717199AA
:100790004171407800281ADD8648407898FBF0F0D7
:1007A0008449A1F840000846407899FBF0F0A1F890
:1007B000500064209AFBF0F0A1F84C0064206F997F
:1007C00091FBF0F07B49A1F84E0008464464002CF0
:1007D00026DB7848D0E90820121940EBE47075490F
:1007E000C1E908204FEAE4704FF00001A4FB0723A1
:1007F00000FB073004FB0100CDE900204FF47A72C2
:100800000B46DDE900011CF00BFA6A4AD2E90C3C08
:100810001A46801841EB0C01664AC2E90C0126E039
:100820006448D0E90A3C604281B259184CF100009A
:10083000604AC2E90A106042C1170022A0FB073CCF
:1008400001FB07C100FB02104FF47A72CDE90030C2
:100850000023DDE900011CF0E3F9564AD2E90E3C21
:100860001A46801841EB0C01524AC2E90E01782267
:10087000504951481CF005FAA9204F491039087019
:100880000120C870088102214B48103841810321A2
:1008900081814FF000084FF00009002400274FF03D
:1008A000000A00206F9000265AE0C6EB061142486D
:1008B00000EBC100B0F8400040441FFA80F8C6EBDE
:1008C00006113D4800EBC100B0F8500048441FFA43
:1008D00080F9C6EB0611384800EBC100406C0444B7
:1008E000C6EB0611344800EBC100B0F84C00504490
:1008F0001FFA80FAC6EB06112F4800EBC100B0F8D2
:100900004E006F90C6EB06112B4800EBC100806CC7
:10091000B84205D9C6EB0611274800EBC100876C29
:10092000C6EB0611244800EBC100C6EB0611D0E966
:100930000CCE214800EBC100D0E90E231CEB0201D4
:100940004EEB03001D4A0023CDE900100846019933
:100950001CF066F96E9A80186E9006F10100C6B21E
:100960001548A0F11000C078B0429EDC1248103843
:10097000C07800281BDD10481038C07898FBF0F0D4
:100980000D491039A1F800020846C07899FBF0F033
:10099000A1F802020846C0F8F041C0F8F471C0F8AE
:1009A000F8A16F99C0F8FC116E99C0F8041273B0E9
:1009B000BDE8F08FA0990020A097002080EE3600BF
:1009C0001FB501200BF049F8FE49086036E003AA84
:1009D0000021FC4800680BF0CDF8FB4800780128A6
:1009E0002CD1FA498868FA49096819F083FF32283E
:1009F00024DDF848007A08BBF6480068B0F5B06F0F
:100A00001CD3F448006880B2ADF80000F148807A49
:100A10008DF80300EF48407A8DF80200002406E0CC
:100A2000EC480B30015D01A80155601CC4B2082CD4
:100A3000F6DB6946E848006819F039FAC7E770B58F
:100A40002DED028B04460D46208E08EE100A322052
:100A5000065D4FF4DD4008EE100A00287AD00A2E19
:100A60007DD2DFE806F07C05182B3E5164797A7B55
:100A700094ED0E0A10EE102A691E01EBC10101EB84
:100A80004101D64B03EB011101F12C0004F13C01B3
:100A90001CF0F7F864E094ED0E0A10EE102A691EBF
:100AA00001EBC10101EB4101CC4B03EB011101F161
:100AB0003C0004F13C011CF0E4F851E094ED0E0A16
:100AC00010EE102A691E01EBC10101EB4101C34B7D
:100AD00003EB011101F1920004F13C011CF0D1F88B
:100AE0003EE094ED0E0A10EE102A691E01EBC101E2
:100AF00001EB4101B94B03EB011101F1B00004F12D
:100B00003C011CF0BEF82BE094ED0E0A10EE102A0A
:100B1000691E01EBC10101EB4101B04B03EB011177
:100B200001F1D80004F13C011CF0ABF818E094EDA1
:100B30000E0A10EE102A691E01EBC10101EB410102
:100B4000A64B03EB011101F1F00004F13C011CF094
:100B500098F805E005E002E002E001E000E000BFF7
:100B600000BFBDEC028B70BD86B013F0EEFB0AE255
:100B70009B48007808287BD2DFE800F004081621A3
:100B80007BC7FDFC022096490870FBE164200BF056
:100B900041FD7F219048006819F080FA9048007864
:100BA000401C8F490870EDE105218B48006819F061
:100BB00075FA8B480078401C89490870E2E164208E
:100BC0000BF028FD0320874909784FF4DD43CDE978
:100BD00000108548027800217F48006814F06CFFFF
:100BE00002217D48006880F82910AFF2AD117A48E3
:100BF0000068C0F8541440208DF8100080208DF853
:100C000011006E208DF81200764800788DF81300E0
:100C100000208DF814008DF815008DF816008DF861
:100C2000170004AF3B467048027802216A4800680A
:100C300015F055F86B4801780078401C694A10702F
:100C400005290FDD03201146087067480078401C15
:100C500065490870654840780978884202DA0120C1
:100C6000614908705E480078401C5D49087089E160
:100C700084E15F480068401C5D49086064200BF017
:100C8000C9FC03200021CDE900105948006800F09C
:100C9000010046F2240143185348027800214E48CF
:100CA000006814F009FF02214B48006880F8291001
:100CB000AFF2752148480068C0F8541440208DF800
:100CC00010004B48006800F0010024308DF811003E
:100CD00060208DF8120000208DF813008DF81400AC
:100CE0008DF815008DF816008DF8170004AF3B46FF
:100CF0003D48027802213848006814F0F0FF384877
:100D00000078401C364908703CE164200BF082FCFE
:100D10003648007801283CD130484069C0F3403063
:100D2000012813D02D484069C0F3003001280DD0B0
:100D30002A48D0F8C401C0F34030012806D0274823
:100D4000D0F8C401C0F3003001281FD146F60325B6
:100D50002248406920F40050204948610846406913
:100D600020F4805048610846D0F8C40120F40051B6
:100D70001A4801E0E6E072E0C0F8C411D0F8C401FE
:100D800020F480511548C0F8C41108E046F6042547
:100D900005E016480078022801D146F605251348DB
:100DA0000078032803D013484078032801D146F681
:100DB0000445032000212B46CDE900100A480278A3
:100DC000054819E02C000020EA0E00208096002043
:100DD000880F002094E400207C1C0020AC3C002004
:100DE0001C0000202800002029000020A0990020DD
:100DF0002400002090970020006814F05DFE02217E
:100E00006148006880F82910AFF2CD315E48006873
:100E1000C0F8541440208DF81000E8B28DF811008D
:100E2000280A8DF8120000208DF8130001208DF89B
:100E3000140000208DF815008DF816008DF81700AD
:100E400004AF3B465148027802214F48006814F035
:100E500046FF4F480078801C4D49087092E064209E
:100E60000BF0D8FB02204B4909784FF4DC430122F8
:100E7000CDE9001000214448006814F01DFE022155
:100E80004148006880F8291050213F4800684163BC
:100E900020204149C8670120C1F88C00312081F829
:100EA000480032213C4880F849102F2180F84A1030
:100EB000312180F84B10322180F84C102F2180F81E
:100EC0004D10312180F84E10322180F84F107B20D8
:100ED0003149086501F13C06002407E016F8011BC2
:100EE000294800683C300155601CC4B2502CF5DB29
:100EF000002125480068C0F8541421208DF8100006
:100F000000208DF811006E208DF812002148007825
:100F10008DF8130050208DF8140000208DF8150076
:100F20008DF816008DF8170004AF3B460122022110
:100F30001548006814F0D3FE15480078401C144989
:100F400008701FE015480088ADF808001348408875
:100F5000ADF80A0011488088ADF80C000F48C08831
:100F6000ADF80E000023082202A9500103F0ABFEE9
:100F700007480078401C0649087003E00320044934
:100F8000087000BF00BFF3E57C1C00202900002092
:100F90001C00002028000020AC3C00206CE9002050
:100FA00010B50446207B042820D006DC012809D097
:100FB00002280BD0032842D110E005281DD0642858
:100FC0003DD122E0607BFD49887339E0607B00EB16
:100FD00080004000F949A1F8400031E0607B00EB5F
:100FE00080004000F549A1F8500029E0A17B607B1A
:100FF00001EB0020F149886022E00020F0494871AF
:10100000F04800680AF068FE1AE00020EC49087019
:1010100001F0A8FFEA48007880B900BFBFF34F8F06
:10102000E948006800F4E060E8490843001DE6492B
:101030000860BFF34F8F00BF00BFFEE700E000BFB6
:1010400000BF10BD70B5034600202FE0C0EB0015B7
:10105000DF4C04EBC504A4799C4225D10C794D7971
:1010600004EB052202EBC20404EB02144FF4D44556
:10107000C5EB4402C0EB0016D54C04EBC604A4F843
:101080004E208C794D7804EBC51202EBC20404EBC0
:101090000214D04DC5EB4402C0EB0016CC4C04EB5F
:1010A000C604A4F84C2006E0441CE0B2C84C103C36
:1010B000E4788442CADC00BF70BD70B502460020EF
:1010C00041E0C0EB0015C24C04EBC504A479944286
:1010D00037D10C784D7804EB0524A5B2C0EB00168F
:1010E000BB4C04EBC604A4F850508C78CD7804EBCC
:1010F0000524A5B2C0EB0016B54C04EBC604A4F859
:1011000040500C794D7904EB052303EBC30404EB49
:101110000314B04DC5EB44031DB2C0EB0016AC4C3C
:1011200004EBC60465648C79CD7904EB052404EBEB
:1011300084046500C0EB0016A54C04EBC604A5644E
:1011400006E0441CE0B2A24C103CE4788442B8DCD7
:1011500000BF70BDF0B501464FF0000C4E68F5B20F
:101160009B4E103EF0780C7C4F7C8E7C07EB062665
:10117000B3B24FF0010C00221AE0C2EB0217944EFA
:1011800006EBC706B6689E4210D1C2EB0217904E1E
:1011900006EBC706B689A64208D1C2EB02178C4EF1
:1011A00006EBC706B5714FF0000C03E0561CF2B217
:1011B0008242E2DB00BFBCF1000F19D0461CF0B246
:1011C000834E103EF070461EC6EB0617804E06EBAF
:1011D000C706B481461EC6EB06177D4E06EBC70652
:1011E000B360461EC6EB0617794E06EBC706B5710F
:1011F000F0BD70B5034600208FE0C0EB0015744CC5
:1012000004EBC504A4799C4271D10A780E2A0FDA46
:10121000002A0DDD8C79CD7904EB0524A5B2C0EB55
:1012200000166B4C04EBC604646E943424F8125020
:10123000012A10D10C794D7904EB052400EE104AF7
:10124000B8EEC00AC0EB0015614C04EBC504646E37
:1012500084ED360A5EE0022A10D10C794D7904EB58
:10126000052400EE104AB8EEC00AC0EB0015584C39
:1012700004EBC504646E84ED370A4BE0032A10D1F9
:101280000C794D7904EB052400EE104AB8EEC00A43
:10129000C0EB00154E4C04EBC504646E84ED380AB7
:1012A00038E0042A10D10C794D7904EB052400EEC6
:1012B000104AB8EEC00AC0EB0015454C04EBC5045B
:1012C000646E84ED390A25E0052A11D10C794D7937
:1012D00004EB052400EE104AB8EEC00AC0EB00157E
:1012E0003B4C04EBC504646E84ED3A0A12E012E054
:1012F000062A0FD10C794D7904EB052400EE104A33
:10130000B8EEC00AC0EB0015314C04EBC504646EA6
:1013100084ED3B0A07E0441CE0B22D4C103CE4781D
:1013200084423FF76AAF00BF70BD1CB584208DF8C2
:1013300000008DF8010070208DF80200F0208DF87B
:10134000030000208DF8040022208DF805001B48C2
:101350008068000A8DF8060018488068C0B28DF8D1
:1013600007000423082269461B4803F016FD1CBD34
:101370001CB5FF208DF804008DF803008DF80200E5
:101380008DF801008DF800001148103800798DF8B3
:1013900005000F48103840798DF806000C481038C9
:1013A00080798DF807000A49103909780B4A8818A6
:1013B00004230822694603F0F0FC1CBDA09900201C
:1013C00080960020FC0000200CED00E00000FA05F3
:1013D000A0970020006A1800A9F0FF080084FF18F9
:1013E00010B5024653680B600B68C3F300631B041F
:1013F0004B608C784B6803EB04234B608B78F02BAD
:1014000003DD4C784B6823444B60937A0B720020C9
:1014100007E002F10B031C5C01F109031C54431C9F
:10142000D8B20828F5DB10BD10B586B00446207A86
:1014300004280AD101A92046FFF7D2FFFE490298ED
:10144000884203D101A81AF0A4FB79E00298A0F524
:101450007F41803910D19DF80D00FF2805D09DF8FF
:101460000D00F649097888426AD19DF80E0084285B
:1014700066D1FFF77DFF63E00298A0F57F418139D7
:101480000FD19DF8140000F00300ED4948709DF85D
:10149000140000F003008870EA4800680AF01CFCA1
:1014A0004EE00298A0F57F41F03949D00298A0F5AE
:1014B0007F41F13944D00298A0F57F41F2393FD005
:1014C0000298A0F57F41F33902D1FFF72EFF37E0F4
:1014D0000298A0F57F41883906D19DF804000DF1EE
:1014E0000D01FFF786FE2BE00298A0F57F418939B8
:1014F00003D12046FFF72EFE22E00298A0F57F419F
:101500008A391DD00298A0F57F418B3918D00298F6
:10151000A0F57F418C3906D19DF804000DF10D0135
:10152000FFF7CBFD0CE00298A0F57F418D3906D185
:101530009DF804000DF10D01FFF784FD00E000BFF0
:10154000207A042805D1606800F08170B0F1817FB5
:1015500009D0207A042807D1BB496068884203D1AA
:10156000E07AB649487001E1207A042803D1B749EE
:1015700060688842F7D0207A042805D14FF6F371CD
:10158000606808408842EED0207A40B92068A0F513
:101590008071313903D12046FFF702FDE6E0207A61
:1015A0000028E0D12068B0F5997FDCD1607B00F0A5
:1015B0000100002804DD1021A54806F0C7F903E06A
:1015C0001021A34806F0C0F9607B00F0020000285B
:1015D00005DD4FF400419E4806F0B6F904E04FF4F3
:1015E00000419B4806F0B2F9607B00F0040000283F
:1015F00005DD4FF48061964806F0A8F904E04FF449
:101600008061934806F0A0F9607B00F00800002894
:1016100005DD4FF400618E4806F098F904E04FF4C0
:1016200000618B4806F090F9607B00F01000002804
:1016300005DD4FF48051864806F088F904E04FF448
:101640008051834806F080F9607B00F0200000287C
:1016500005DD4FF400517E4806F078F904E04FF4C0
:1016600000517B4806F070F9607B00F040000028D4
:1016700005DD4FF48041764806F068F904E04FF448
:101680008041734806F060F9607B00F0800000281C
:1016900004DD01216F4806F057F903E001216D4890
:1016A00006F054F9A07B00F00100002804DD0221BF
:1016B000684806F049F903E00221664806F046F959
:1016C000A07B00F00200002804DD0421614806F040
:1016D0003BF903E004215F4806F038F9A07B00F0F5
:1016E0000400012805DD4FF480715B4806F02EF9F7
:1016F00004E04FF48071584806F026F9A07B00F012
:101700000800002804DD0421544806F01DF903E018
:101710000421524806F01AF9A07B00F020000028AE
:1017200004DD02214A4806F00FF903E0022148488F
:1017300006F00CF9A07B00F04000002804DD042135
:10174000434806F001F903E00421414806F0FEF8A1
:10175000A07B00F08000002804DD08213C4806F052
:10176000F3F803E008213A4806F0F0F806B010BD9F
:1017700008B503F014FA01200AF06FF9384908603F
:1017800017E06A460021364800680AF0F3F9354848
:10179000007801280DD1344988683449096819F066
:1017A000A9F8282802DD3248FFF73EFE00202D4927
:1017B0000870E6E700B587B02E48007810B1012820
:1017C00079D179E02C4800788DF8140026484079CA
:1017D0008DF815009DF815002349897840EA4100ED
:1017E000C0B28DF815009DF81500244991F87010CD
:1017F00040EA8100C0B28DF815009DF815000F4930
:1018000091F8081240EAC100C0B28DF815001648E0
:1018100040788DF81600094880784006000E8DF853
:10182000170004210D4806F082F89DF8171041EAD0
:101830008000C0B224E00000001701009097002053
:10184000D8000020F4000020E8FF0119A8B118001A
:10185000001002400014024000080240000C024048
:1018600040000020EB0E002080960020880F002012
:10187000A8E400203E000020DB000020A09900200A
:101880008DF817004FF40041FE4806F050F89DF81F
:10189000171041EAC000C0B28DF81700FA4800786E
:1018A000401CF94908700023082205A94FF4826002
:1018B00003F073FAAEE0A9E0F4480088ADF8040044
:1018C000F2484088ADF80600F0488088ADF808007E
:1018D000EE48C088ADF80A000023082201A940F2B2
:1018E000114003F05AFAE9480089ADF80400E748CE
:1018F0004089ADF80600E5488089ADF80800E34866
:10190000C089ADF80A00E148008AADF80400DF485C
:10191000408AADF80600DD48808AADF80800DB4853
:10192000C08AADF80A00DA484088ADF80400D8480B
:101930000088ADF80600D6480089ADF80800D44804
:10194000C088ADF80A000023082201A940F2144023
:1019500003F023FACE488088ADF80400CC48808993
:10196000ADF80600CA48C089ADF80800C848008A2A
:10197000ADF80A000023082201A940F2154003F047
:101980000CFAC448008A000A8DF81400C148008A85
:10199000C0B28DF815000023082201A940F21640BC
:1019A00003F0FBF9BC480068000E8DF81400BA483B
:1019B0000068000C8DF81500B7480068000A8DF823
:1019C0001600B5480068C0B28DF81700B34800781B
:1019D0008DF81800AF48008A000A8DF81900AD484C
:1019E000008AC0B28DF81A00AD480068C0B28DF808
:1019F0001B000023082205A940F2174003F0CDF98F
:101A0000A1480078401CA049087003E000209E49CE
:101A1000087000BF00BF07B000BD1CB5A148D0F8DA
:101A20000402C0B28DF800009E48D0F80402000AFB
:101A30008DF801009B48D0F80402000C8DF80200DC
:101A40009848D0F80402000E8DF803009548B0F8CD
:101A50000202C0B28DF804009248B0F80202000AF7
:101A60008DF805008F48B0F80002C0B28DF806006E
:101A70008C48B0F80002000A8DF8070089490978FF
:101A8000894A881804230822694603F086F91CBD98
:101A90001CB58448D0F8F8014006000E8DF800000F
:101AA0008048D0F8F801C0F3D7108DF801007D48C8
:101AB000D0F8FC014006000E8DF802007948D0F8FD
:101AC000FC01C0F3D7108DF803007648D0F8F00180
:101AD00076490844322190FBF1F0C0B28DF8040041
:101AE0007048D0F8F00171490844322190FBF1F0C0
:101AF000000A8DF805006B48D0F8F4010A21B0FB0C
:101B0000F1F0C0B28DF806006648D0F8F401B0FBE1
:101B1000F1F0000A8DF8070062490978644A8818D4
:101B200004230822694603F038F91CBD1CB504469D
:101B3000FF208DF800005F48C07B8DF801005D48F4
:101B4000007C8DF802005B48407C8DF8030059480A
:101B5000807C8DF8040057488089C0B28DF805005C
:101B600054488068C0B28DF8060052488068000A68
:101B70008DF807004F4989794F4A881804230822B5
:101B8000694603F00AF91CBD2DE9FC4104464948A9
:101B9000C07B01280CD1434840788DF807004549A7
:101BA0008979464A881804230822694603F0F5F823
:101BB000601CC0B28DF80000FF208DF802008DF887
:101BC00003003C48406E943030F81400C0B28DF8E9
:101BD00006003848406E943030F81400000A8DF842
:101BE0000700ECB93348406E90ED360AF2EE040A75
:101BF00020EE200ABDEEC00A10EE100AC0B28DF829
:101C000004002C48406E90ED360AF2EE040A20EEF5
:101C1000200ABDEEC00A10EE100A000A8DF8050079
:101C2000012C1DD12348406E90ED370AF2EE040AD4
:101C300020EE200ABDEEC00A10EE100AC0B28DF8E8
:101C400004001C48406E90ED370AF2EE040A20EEC4
:101C5000200ABDEEC00A10EE100A000A8DF8050039
:101C6000022C3CD11348406E90ED380AF2EE040A83
:101C700020EE200ABDEEC00A10EE100AC0B28DF8A8
:101C800004001DE0001002403E0000206CE900202E
:101C9000EC8F002080960020E4000020DB00002074
:101CA000E0000020909700200083FF0C006A1800DD
:101CB0000082FF0CA09900200089FF18008AFF18FD
:101CC000FD48406E90ED380AF2EE040A20EE200A3C
:101CD000BDEEC00A10EE100A000A8DF80500032CB4
:101CE0001DD1F548406E90ED390AF2EE040A20EE5F
:101CF000200ABDEEC00A10EE100AC0B28DF8040032
:101D0000ED48406E90ED390AF2EE040A20EE200A0A
:101D1000BDEEC00A10EE100A000A8DF80500042C72
:101D20001DD1E548406E90ED3A0AF2EE040A20EE2D
:101D3000200ABDEEC00A10EE100AC0B28DF80400F1
:101D4000DD48406E90ED3A0AF2EE040A20EE200AD9
:101D5000BDEEC00A10EE100A000A8DF80500D64943
:101D60008979D64A881804230822694603F015F8B1
:101D7000601CC0B28DF80000FF208DF802008DF8C5
:101D80000300CD48406E00F5117030F81400C0B269
:101D90008DF80600C848406E00F5117030F8140048
:101DA000000A8DF80700ECB9C348406E90EDA20A16
:101DB000F2EE040A20EE200ABDEEC00A10EE100A70
:101DC000C0B28DF80400BC48406E90EDA20AF2EE5D
:101DD000040A20EE200ABDEEC00A10EE100A000A26
:101DE0008DF80500012C1DD1B348406E90EDA30A7B
:101DF000F2EE040A20EE200ABDEEC00A10EE100A30
:101E0000C0B28DF80400AC48406E90EDA30AF2EE2B
:101E1000040A20EE200ABDEEC00A10EE100A000AE5
:101E20008DF80500022C1DD1A348406E90EDA40A48
:101E3000F2EE040A20EE200ABDEEC00A10EE100AEF
:101E4000C0B28DF804009C48406E90EDA40AF2EEFA
:101E5000040A20EE200ABDEEC00A10EE100A000AA5
:101E60008DF80500032C1DD19348406E90EDA50A16
:101E7000F2EE040A20EE200ABDEEC00A10EE100AAF
:101E8000C0B28DF804008C48406E90EDA50AF2EEC9
:101E9000040A20EE200ABDEEC00A10EE100A000A65
:101EA0008DF80500042C1DD18348406E90EDA60AE4
:101EB000F2EE040A20EE200ABDEEC00A10EE100A6F
:101EC000C0B28DF804007C48406E90EDA60AF2EE98
:101ED000040A20EE200ABDEEC00A10EE100A000A25
:101EE0008DF8050074498979754A881804230822F9
:101EF000694602F052FF7348FFF718FE6E48B0F8CB
:101F00005000C0B28DF800006B48B0F85000000AD5
:101F10008DF801006848B0F84000C0B28DF80200AA
:101F20006548B0F84000000A8DF803006648D0F814
:101F3000F00166490844322190FBF1F0C0B28DF8FF
:101F400004006148D0F8F00160490844322190FB58
:101F5000F1F0000A8DF805005748806C0A21B0FBAB
:101F6000F1F0C0B28DF806005348806CB0FBF1F080
:101F7000000A8DF8070050498979554A88180423CA
:101F80000822694602F009FF4B48524A0023D0E973
:101F90000C6130461AF044FE0546E8B28DF80000A8
:101FA000280A8DF80100280C8DF80200280E8DF803
:101FB00003004148B0F84E004006000E8DF80400C2
:101FC0003D48B0F84E0000F57A50C0F3D7108DF8B8
:101FD00005003948B0F84C004006000E8DF80600A8
:101FE0003548B0F84C0000F57A50C0F3D7108DF8A2
:101FF000070031498979384A88180423082269463C
:1020000002F0CBFEBDE8FC8155E00A200AF002FB9D
:1020100032480068401C3149086031480078012886
:1020200002D12848FFF782FD2C4800681421B0FB3C
:10203000F1F201FB120070B92A4801780078401CC7
:10204000284A10700D2902DD00201146087025482D
:102050000078FFF799FD214800686521B0FBF1F297
:1020600001FB120068B91448C07B012809D1FFF7B1
:102070000FFD1D48007820B9FFF757F901201A49D4
:1020800008701648006840F2E931B0FBF1F201FB3C
:10209000120028B90848C07B012801D1FFF7BDFC18
:1020A0000E4800681521B0FBF1F201FB120008B9DF
:1020B000FFF780FB00BFA8E7A09900200088FF1869
:1020C0000098FF180068004090970020006A1800F0
:1020D000008CFF1880EE3600008DFF1834000020C1
:1020E000DB00002032000020300000200A2009F030
:1020F000B4FCFB490860C2E001200AF08BFAF94801
:10210000007800281BDDF848007800EB8000F74AD3
:1021100002EB8001F64804F0F9FD0446042C0EDAC7
:10212000F1480078401CC0B2EF4908701E2801DB5E
:1021300000200870EB480078401EEA490870E94822
:10214000007800281BDDE848007800EB8000E74AB3
:1021500002EB8001E64804F0D9FD0446042C0EDAB7
:10216000E1480078401CC0B2DF4908701E2801DB3E
:1021700000200870DB480078401EDA490870D94812
:10218000007800281BDDD848007800EB8000D74A93
:1021900002EB8001D64804F0B9FD0446042C0EDAA7
:1021A000D1480078401CC0B2CF4908701E2801DB1E
:1021B00000200870CB480078401ECA490870CD48FE
:1021C000007800281BDDCC48007800EB8000CB4A6B
:1021D00002EB8001CA4804F099FD0446042C0EDA93
:1021E000C5480078401CC0B2C34908701E2801DBF6
:1021F00000200870BF480078401EBE490870BD48E6
:10220000007800281BDDBC48007800EB8000BB4A4A
:1022100002EB8001BA4804F079FD0446042C0EDA82
:10222000B5480078401CC0B2B34908701E2801DBD5
:1022300000200870AF480078401EAE490870AD48D5
:10224000007800281BDDAC48007800EB8000AB4A2A
:1022500002EB8001AA4804F059FD0446042C0EDA72
:10226000A5480078401CC0B2A34908701E2801DBB5
:10227000002008709F480078401E9E4908703BE788
:1022800070471CB504469F480078052866D2DFE8F1
:1022900000F00312384E64009B4801780078401C1F
:1022A000994A10700A2905DD01209649087000201E
:1022B0001146087052E09548807820B1944890F813
:1022C0007000012806D09148807888B9904890F82D
:1022D000700068B98F480078052809D08D480078CB
:1022E0000C2805D002208749087000208649087014
:1022F00000208DF800004FF40041874805F026FBD0
:102300002CE0814801780078401C7F4A10701E291B
:1023100005DD03207B49087000201146087001206C
:102320008DF80000C1037C4805F00EFB16E07648EE
:1023300001780078401C744A10701E2904DD0020CA
:10234000704908701146087000208DF800004FF4A5
:102350000041714805F0FAFA00E000BF00BF042315
:10236000082269466D4802F018FD1CBD30B5040C0A
:1023700001D0012500E000250C6865F318640C60AD
:10238000040A01D0012400E00024224608B10124FF
:1023900000E000242346F02A06DB614D0C682C4047
:1023A0000C608A704B7004E08A705E4D0C682C40A3
:1023B0000C600C6844EA00240C6030BD30B585B078
:1023C00005460C461422214668461AF05AFC9DF830
:1023D000082004230DF10901009802F0DEFC05B08D
:1023E00030BD1CB501208DF8000000208DF80100E3
:1023F00070208DF80200F0208DF8030001208DF888
:10240000040000208DF805004148806808B10120D3
:1024100000E000208DF806003D488068000A01D0E9
:10242000012000E000208DF80700384909783E4A75
:10243000881804230822694602F0AFFC1CBD1CB5B5
:1024400001208DF8000000208DF8010070208DF82B
:102450000200F0208DF8030001208DF80400002018
:102460008DF805002A48806808B1012000E00020AE
:102470008DF8060026488068000A01D0012000E09F
:1024800000208DF8070021490978284A881804237C
:102490000822694602F081FC1CBD1CB5FF208DF8A6
:1024A00000008DF801008DF802008DF803008DF812
:1024B00004001748007C8DF805001548407C8DF815
:1024C00006001348807C8DF8070010490978184AE7
:1024D000881804230822694602F05FFC1CBD000036
:1024E00044000020E90E00203900002014E70020FD
:1024F00000680040E80E002038000020BCE4002006
:10250000006400403B0000203C0000209097002029
:10251000A0990020DB000020001002400157AA0013
:10252000FF00001CFFFF001C00F0FF1800F1FF1867
:1025300000F2FF181CB5FF208DF800008DF8010097
:102540008DF802008DF803008DF804002148007C0E
:102550008DF805001F48407C8DF806001D48807CE2
:102560008DF807001C4909781C4A881804230822A2
:10257000694602F012FC1CBD1CB501208DF800005C
:1025800000208DF8010070208DF80200F0208DF8F9
:10259000030001208DF8040000208DF805000D488F
:1025A000806808B1012000E000208DF8060009488D
:1025B0008068000A01D0012000E000208DF80700AB
:1025C00005490978064A881804230822694602F05A
:1025D000E4FB1CBDA09900209097002000F3FF1899
:1025E00000F4FF182DE9F84F04460A9D4FF0000B48
:1025F000CDF800B01646A1F1010B1BFB032AD4ED68
:10260000000AF8EE600AB0EE600AD4F800B0CDF827
:1026100000B0D4F800B0CDF800B004EB810B5BED56
:10262000010AF8EE600AB0EE600AD4ED010AF8EE95
:10263000600AB0EE600AD4F800B0AB4501D2501F7A
:1026400070E004EB810B5BF804BCAB4504D911FBD3
:10265000032B0BF1050065E000BFDDF800B00BF1C6
:10266000010BCDF800B0A6EB020B9BFBF3FB0BF0CC
:10267000FF0CAAEB020B9BFBF3FB0BF0FF090CEB2F
:10268000090B0BEBDB7ECEF3470818FB0327AAEB05
:10269000060B9B452ADCDFF838B45BF82CB0DFF87A
:1026A00030E45EF829E0ABEB0E0B00EE90BAF8EEEA
:1026B000601ADFF81CB45BF82CB0ABEB050B00EE36
:1026C00090BAF8EE600A80EEA11A00EE903AF8EEA9
:1026D000601A00EE906AF8EEE00A41EE210AB0EED0
:1026E000600AFDEEC00A10EE900A1AE0DFF8E0B3CF
:1026F0005BF828B0AB4501D2BA46AEE7DFF8D0B3FD
:102700005BF828B0AB4501D93E46A6E700EE907ACB
:10271000F8EEE00AB0EE600AFDEEC00A10EE900A94
:1027200000BF00BFBDE8F88F30B52DED0A8B81B03A
:1027300004460D46E74830F8140000EE100AB8EEE3
:10274000400A10EE101A08461AF0F5FB41EC100B87
:10275000B0EE40BAF0EE60BA9FEDDF0B53EC102BF9
:1027600051EC1B0B1AF0FBFA41EC100BB0EE40AA37
:10277000F0EE60AA9FEDDA0B53EC102B51EC1A0B24
:102780001AF0EDFA41EC100BB0EE409AF0EE609AC0
:102790009FEDD50B53EC102B51EC190B1AF04FFB9E
:1027A00041EC100BB0EE408AF0EE608A51EC180B51
:1027B0001AF0D7FB0CEE100A092C7ED2DFE804F0E9
:1027C0000513212F4B3D53616F00C248008805233C
:1027D0006FF027021E210090BD48FFF703FF80B273
:1027E000C349888169E0BB48408805236FF0270210
:1027F0001E210090B648FFF7F5FE80B2BC49C881A3
:102800005BE0B448808805236FF027021E2100900A
:10281000AF48FFF7E7FE80B2B54908824DE0B3EE5E
:10282000050A2CEE000AB0EE40CABCEECC0A10EE4F
:10283000100A80B2AE4948803FE0B3EE050A2CEEA4
:10284000000AB0EE40CABCEECC0A10EE100A80B20C
:10285000A749088031E0BCEECC0A10EE100A80B225
:10286000A349488129E0B3EE050A2CEE000AB0EE38
:1028700040CABCEECC0A10EE100A80B29C49888097
:102880001BE0B7EE000A2CEE000AB0EE40CABCEE28
:10289000CC0A10EE100A80B29549C8800DE0B1EE66
:1028A000000A2CEE000AB0EE40CABCEECC0A10EED4
:1028B000100A80B28E49088100BF00BF01B0BDEC94
:1028C0000A8B30BD10B52DED068B8A4800780128A3
:1028D00051D10020884908603FE07E49864A12684D
:1028E00031F812001AF01AFB41EC100BB0EE409ACE
:1028F000F0EE609A9FED780B53EC102B51EC190B16
:102900001AF02DFA41EC100BB0EE408AF0EE608A1E
:102910009FED750B53EC102B51EC180B1AF08FFA3E
:1029200041EC100BB0EE40AAF0EE60AA51EC1A0B8D
:102930001AF017FB7149704A126841F82200654885
:102940006D4A126830F812106B480068FFF7ECFE11
:1029500069480068401C68490860674800680928A1
:10296000BBD30121664804F011FE664803F0F1FE76
:10297000002060490870BDEC068B10BD2DE9F04FBA
:102980008CB004460E46159D4FF0000BCDF800B0FC
:10299000002106E054F821B00DF1040E4EF821B0EC
:1029A000491C0B29F6DB1146A6F1010B1BFB032981
:1029B000D4F800B0CDF800B0D4F800B0CDF800B035
:1029C00004EB860B5BED010AF8EE600AB0EE600ADC
:1029D000D4ED010AF8EE600AB0EE600AD4F800B057
:1029E000AB4501D9501F70E004EB860B5BF804BCCB
:1029F000AB4504D216FB032B0BF1050065E000BFCD
:102A0000DDF800B00BF1010BCDF800B0A1EB020B2B
:102A10009BFBF3FB0BF0FF0CA9EB020B9BFBF3FB07
:102A20000BF0FF0A0CEB0A0E0EEBDE7BCBF3470834
:102A300018FB0327A9EB010B9B452ADC0DF1040BC6
:102A40005BF82AB00DF1040E5EF82CE0ABEB0E0B38
:102A500000EE90BAF8EEE01A0DF1040B5BF82CB022
:102A6000A5EB0B0B00EE90BAF8EE600A80EEA11A0F
:102A700000EE903AF8EE601A00EE901AF8EEE00AD6
:102A800041EE210AB0EE600AFDEEC00A10EE900A97
:102A90001AE00DF1040B5BF828B0AB4501D9B9463B
:102AA000AEE70DF1040B5BF828B0AB4501D2394617
:102AB000A6E700EE907AF8EEE00AB0EE600AFDEECE
:102AC000C00A10EE900A00BF00BF0CB0BDE8F08F46
:102AD000540000206CE900206666666666660A405F
:102AE0000000000000408F40000000000000B040E7
:102AF000EC8F0020F60E00205000002000900020F7
:102B000010640240002001400020FE490860FE4998
:102B1000087070472DE9F04FADF5037D05468846F6
:102B200000264FF40072F94902A81AF0AAF800240E
:102B300014E0F7B24FEA1629285D829002A830F817
:102B40001400019038020090285D80EA090A02A86A
:102B500030F81A0080EA0726601CC4B24445E8DB5E
:102B600006F0FF0B58460DF5037DBDE8F08F2DE90B
:102B7000F041CCB080460D4616461F460F2E01D1BF
:102B800033AC00E001AC61193A4640461AF079F8DE
:102B90004CB0BDE8F0812DE9F041CCB006460C46C2
:102BA000174698460F2F02D133A8051901E001A856
:102BB00005194246314628461AF063F84CB0BDE884
:102BC000F0812DE9F041044627782078202801DAA9
:102BD000277805E0207800F0F007207800F00F0655
:102BE000402F7ED00CDC072F4BD004DC022F14D0FA
:102BF000042F73D120E0182F55D0302FF9D153E096
:102C0000702F6CD004DC502F6AD0602FF1D18EE091
:102C1000802F7AD0902FECD1DBE00020BC490870E7
:102C200048700221BA48FFF775FFB949887003213F
:102C3000B74802F0F1FBE1E00020B349487080B1F1
:102C40000120B34908704870002088700321B04803
:102C5000FFF760FFAE49C8700421AD4802F0DCFB0D
:102C60000EE00020AA490870487088700321A84827
:102C7000FFF750FFA649C8700421A54802F0CCFB1D
:102C8000BCE05F20A24908703620487000208870A0
:102C900003219F48FFF73EFF9D49C87004219C48CF
:102CA00002F0BAFBAAE0A9E0657801233246294682
:102CB000A01CFFF770FF944840789549087092482F
:102CC0008078487002219248FFF724FF904988706D
:102CD00003218F4802F0A0FB90E002E08DE042E08B
:102CE00014E065788A480570012332462946401C65
:102CF000FFF73DFF02218648FFF70CFF84498870EB
:102D00000321834802F088FB78E040E07E48407869
:102D10007F4908700020487002217D48FFF7FAFEC5
:102D20007B49887003217A4802F076FB66E065787B
:102D3000022332462946A01CFFF72DFF7248407837
:102D4000734908707048807848706F48C078887000
:102D500003216F48FFF7DEFE6D49C87004216C48FF
:102D600002F05AFB4AE06578694805700223324652
:102D70002946401CFFF7FBFE03216548FFF7CAFE0A
:102D80006349C8700421624802F046FB36E065786A
:102D9000022332462946A01CFFF7FDFE5A48407820
:102DA0005B4908705848807848705748C0788870E8
:102DB00055480079C8705448407908710521544835
:102DC000FFF7A8FE524948710621514802F024FB42
:102DD00014E065784E480570042332462946401CAD
:102DE000FFF7C5FE05214A48FFF794FE48494871A0
:102DF0000621474802F010FB00E000BF00BFBDE81D
:102E0000F08170B52DED028B3F480078202802DA62
:102E10003D48047807E03C48007800F0F0043A4868
:102E2000007800F00F06602C07D1364800680528AE
:102E300003D20020BDEC028B70BD802C05D131483F
:102E40000068072801D20020F4E72E480068042813
:102E500001D20020EEE70025602C02D0802C1ED18C
:102E60000EE004212848FFF755FE08EE100A264818
:102E7000007908EE100A08B1012500E000251DE0E8
:102E800006212148FFF746FE08EE100A1E48807909
:102E900008EE100A08B1012500E000250EE003212C
:102EA0001948FFF737FE08EE100A1748C07808EEF9
:102EB000100A08B1012500E0002500BF00BF284628
:102EC000B8E71FB5114A0C3A07CA8DE80700012080
:102ED00008F0C3FD0F49086029E003AA64210D48EA
:102EE000006808F047FE0C48007801281DD100203A
:102EF0000949087003480068042818D3FFF781FFC8
:102F000004460BE0040F0020ACED0020C0DC0108FB
:102F1000ACF50020CC000020020F00203CB104489A
:102F2000FFF74FFEFFF7F0FD01E0FFF7EDFDD4E7FF
:102F3000ACED002010B50321084602F0CAFD4FF4A5
:102F4000405002F0D2FB4FF404714C4802F0E5FB14
:102F50004FF4405002F0C6FB4FF40471474802F0B2
:102F6000C7FB10BD10B50121084602F0B2FD4FF4B9
:102F7000805002F0BAFB4FF48671414802F0CDFB5D
:102F80004FF4805002F0AEFB4FF486713C4802F0E3
:102F9000AFFB10BD10B50221084602F09AFD4FF4B8
:102FA000005002F0A2FB7821364802F0B6FB4FF445
:102FB000005002F097FB7821324802F099FB10BDD7
:102FC00002F0D6FB4021304804F0BEFC23E04FF471
:102FD00000712D4804F0B8FC40212B4804F0B6FCE9
:102FE0004FF40071284804F0B1FC4021264804F059
:102FF000ABFCFFF7CFFFFFF7B5FFFFF79BFF4FF4E9
:103000000071214804F0A0FC42F210730022114626
:10301000104609F02DFBDAE730B5ADF5017D00244F
:103020004FF4805500BF02E041A90C55641CFF2CF1
:10303000FAD902F0CCFE05F58072110B280B02F0D4
:1030400048FD284602F051FB4FF4807141A802F080
:1030500064FB02F080FB284602F044FB4FF48071D1
:1030600001A802F045FB0DF5017D30BD10B5FFF75D
:1030700061FFFFF78FFFFFF775FF10BD90970020EE
:1030800080960020A09900200008024010B52DED88
:10309000028B4FF4867008EE100A4FF400716E48F0
:1030A00004F052FC4FF4805002F01CFB4FF4867188
:1030B0006A4802F01DFB4FF40071674804F044FCBD
:1030C000002066490871887048710846008A401CD3
:1030D0000882BDEC028B10BD10B52DED028B78205F
:1030E00008EE100A4FF4005002F0FCFA4FF40071A1
:1030F000594804F029FC7821594802F0F9FA0020D7
:103100005749C873A820887108468068B0F1807F4D
:1031100001D3012088605248B0F84000B0F57A7FB2
:1031200004DD4FF47A704E49A1F840004C48B0F8E5
:103130005000B0F57A7F04DD4FF47A704849A1F869
:10314000400047484FF0FF33D0E908121809591AD8
:10315000904103D20021424A1162516240484FF02F
:10316000FF33D0E90A2118099A1A884103D20021B5
:103170003B4A9162D1623A484FF0FF32D0E90C31BC
:103180001009D21A884103D20021354A11635163D4
:1031900033484FF0FF31D0E90E320809C91A904187
:1031A00003D200212E4A9163D16305F014F92C4912
:1031B000888178222B4819F064FD4FF4007126486D
:1031C00004F0C2FB0120264981F87000002008703D
:1031D00008740120487404208874BDEC028B10BD73
:1031E00010B52DED028B4FF4047008EE100A4FF469
:1031F0000071194804F0A8FB4FF4405002F072FA35
:103200004FF404711748103802F072FA0020154983
:10321000103981F808020120C87041020E4804F0FC
:1032200093FB00200F4910390871012048710420D8
:103230008871BDEC028B10BD10B5FFF7D1FFFFF711
:103240004BFFFFF723FF002007494870074800683D
:103250000249886010BD00000008024080960020EE
:10326000A0990020A0970020D8000020880F0020FF
:103270000020704710B52021FE4804F04BFB20B120
:103280004021FC4804F046FB00B90124204610BD53
:10329000002070470EB5F84A07CA8DE807000421E0
:1032A000F64804F051FB1021F54804F04FFB36E1DD
:1032B0000A2300221146104609F0DAF902F0B0FDA7
:1032C00009F055FAEF490860FFF7E2FF18B107204F
:1032D000ED49087009E0FFF7CDFF30B1E94800681B
:1032E000EA4908600620E8490870E74800780D2898
:1032F0007ED2DFE800F0077D86BACEE1F2F0687D8D
:103300007D7DEF000020E24988700220E1490870CD
:10331000DC480168DD48006817F0ECFADE498842B5
:1033200003DD0D20D84908704CE0D6480168D74825
:10333000006817F0DFFA43F69821884207DDD1488C
:103340000068D24908600820CF4908703AE0CD48AB
:103350000168CE48006817F0CDFA41F28831884202
:1033600010DDCC488078022806D1C6480068C749DD
:1033700008600220C44908704FF40041C04804F0BE
:10338000E5FA1FE0BF480168C048006817F0B2FACC
:10339000B0F5FA6F08DDBF48807898B94FF4004166
:1033A000B74804F0D1FA0DE0B6480168B7480068A4
:1033B00017F0A0FAB0F5FA7F04DD4FF40041B048F1
:1033C00004F0C4FAAAE00320B2490870AD480168CD
:1033D000AE48006817F08EFAB0F5FA6F10DDAD4810
:1033E000807868B90020A8490870A648006800E005
:1033F00093E0A64908604FF40041A14804F0A6FA02
:103400008CE00120A24988700220A2490870810343
:103410009B4804F09BFA9F48C078002807DD9D4830
:103420008078022803D10320974908701CE0954852
:1034300001689648006817F05DFA42F21071884200
:1034400012DD9448807802280EDA03209149087032
:103450004FF400418A4804F079FA00208A49087044
:10346000884800688949086058E00821844804F0C9
:103470006DFA8A48807801280AD18549487004206D
:103480008149087083480079002801DD0420087014
:1034900044E001207E4948707E4908707F4880786A
:1034A000022802D17849087005E0FFF7E1FE10B16B
:1034B00005207549087031E078488078022802D1EB
:1034C0007149087005E0FFF7D3FE10B904206E497A
:1034D000087023E020E017E0FFE7FFF7CBFE28B9F4
:1034E000FFF7C6FE10B902206749087065480168F9
:1034F0006648006817F0FEF94EF66021884202DD4A
:1035000007206149087009E06248807818B90421F1
:103510005A4804F01BFA01E000E000BF00BFC7E614
:1035200002468A4201D9501A7047881AFCE730B522
:1035300001220023574CA4681FFA84FC00200EE0EF
:10354000C0EB0015524C103404EBC504A468A1B2C2
:103550008C4502DD02225C1CE3B2441CE0B24C4C00
:10356000E4788442ECDC4B4CE27303F1A904494D4E
:10357000AC71474CE27730BD10B508213F4804F0EC
:10358000C9F920B94648807808B1012400E0002438
:10359000204610BD10B5044642480078052819D2CF
:1035A000DFE800F003193B518600364801683E48C9
:1035B000006817F09FF9B0F57A7F06DD01203949E0
:1035C000087030480068384908604FF400412C48C2
:1035D00004F0BCF96DE02E48807818B12D48807851
:1035E000012806DB2A488078B0B92A48807802286A
:1035F00012D1244801682C48006817F07BF9B0F517
:103600007A7F09DD0220274908701E480068264994
:1036100008600020254908804BE01A4801682248CC
:10362000006817F067F9B0F5FA6F06DD03201D4951
:103630000870144800681C4908604FF400411048A5
:1036400004F082F935E00F4801681748006817F068
:1036500051F940F6B831884206DD00201149087062
:1036600008480068104908604FF40041044804F01D
:103670006DF91EE000140240C0DE0108000C02409B
:1036800000100240E4000020DB000020E0000020E9
:1036900090970020A0990020A0860100D80000206B
:1036A00080960020D1000020D4000020D20000200D
:1036B00000BF00BF10BD0EB5A24A07CA8DE80700C3
:1036C0000421A14804F040F91021A04804F03EF97B
:1036D00023E10A2300221146104608F0C9FF02F038
:1036E0009FFB0120FFF756FF09F041F89849086059
:1036F00098480078112879D2DFE800F0091B4D675F
:1037000093A94445C1E0B3F4F2F1F0EFEE00904824
:1037100001689148006817F0EDF8022808DD0120E3
:103720008E4988708B490870894800688A4908600A
:10373000F2E00821854804F009F900208849C8739F
:10374000FFF71AFF8749487081480168824800687E
:1037500017F0D0F83C2814DDFFF7E9FE8048C07B65
:10376000012803D103207B49087006E07C48C07B18
:10377000022802D107207749087075480068764909
:103780000860C9E0C8E075484078012802D10220ED
:1037900070490870C0E00120714908700A46916CB8
:1037A000714A1088FFF7BCFEB0F57A7F0CD26E48E4
:1037B000008847F23051884206DD65480068664956
:1037C0000860032063490870A6E00120644908707E
:1037D0006548008847F23051884210DD61484078E2
:1037E000012804D10C205B49087003E093E0042019
:1037F00058490870564800685749086010E0544816
:1038000001685548006817F075F842F21071884257
:1038100006DD0B204F4908704D4800684E4908608E
:103820007AE04B4801684C48006817F063F8B0F53F
:103830007A7F02DD0B20474908704A48807828B912
:1038400000204849487105204249087064E0012081
:10385000424988704249087008213C4804F074F8D5
:103860005AE001203D49887000203D4908703F48DA
:103870004078012802D10520364908704CE03B48C9
:103880004078012805D1FFF7F1FB09203149087084
:103890000EE036484078022805D1FFF7E7FB092003
:1038A0002C49087004E0FFF7E1FB09202949087062
:1038B00000202B490870294988702DE000202749F5
:1038C000887027490870084690F8700018B10421E4
:1038D0001D4804F03BF81FE01CE01AE018E016E079
:1038E0000DE0FFE72248006808F0A2F818B10520B3
:1038F0001849087002E00820164908700CE01748C3
:1039000090F8080210B108201249087004E003E0A2
:1039100002E001E000E000BF00BFDAE610B54FF4BE
:1039200000410A4804F003F8012808D11021074893
:1039300004F00CF84FF40041044804F005F810BD01
:1039400070470000CCDE0108000C0240001002406D
:10395000E4000020DB000020E00000209097002021
:10396000A099002080960020EC8F0020D800002035
:10397000FC000020002008F070F8364908600020A4
:1039800008F06BF83449086062E00A23002211460F
:10399000104608F06DFE2F48006808F049F804B2A0
:1039A0002CB100202D4908802D4988700BE02B4850
:1039B00001880088401C294A1080B1F5167F02DD7D
:1039C0000120274988702448006808F031F805B2C2
:1039D00035B1002023490880234981F870000CE0AC
:1039E000204801880088401C1E4A1080B1F5167FCF
:1039F00003DD01201C4981F870001948807818B94E
:103A0000194890F8700018B101201549487102E07A
:103A10000020134948711548D0F8F001B0F5967FA1
:103A200008DD0020114981F8080211480068114999
:103A300008600DE00E4801680E48006816F05AFF55
:103A40004EF66021884203DD0120084981F8080212
:103A50009BE70000F4000020F8000020EC000020AC
:103A600080960020EE000020A09900209097002072
:103A7000880F0020F000002041F2883008F0CAFDD5
:103A800002F0A9FC07E0642008F0C4FD02480068C9
:103A9000401C01490860F6E70001002010B500F065
:103AA000E9FE00F097FD01F00FF801F0E1F901F0F7
:103AB000DFFB01F0DFFA01F065FD01F059FE0121A5
:103AC000402004F043FB012004F076FC02F096F95C
:103AD00000F00EF80421044803F036FF4FF40041D3
:103AE000024803F033FF10BD000C024000100240FA
:103AF00008B54FF4407002F0C7FC3D208DF800007F
:103B000000208DF801008DF8020001208DF80300DF
:103B1000684602F0BEFC14208DF800004FF440709F
:103B200002F0B2FC00208DF801008DF802000120A7
:103B30008DF80300684602F0ACFC40208DF80000D0
:103B40004FF4407002F0A0FC00208DF801008DF8C9
:103B5000020001208DF80300684602F09AFC342030
:103B60008DF800004FF4407002F08EFC00208DF8BC
:103B7000010005208DF8020001208DF80300684641
:103B800002F087FC4FF4407002F07EFC25208DF897
:103B9000000000208DF801008DF8020001208DF852
:103BA0000300684602F075FC4FF4407002F06CFCB4
:103BB00038208DF8000001208DF8010000208DF8DC
:103BC000020001208DF80300684602F062FC4FF409
:103BD000407002F059FC3C208DF8000001208DF867
:103BE000010000208DF8020001208DF803006846D6
:103BF00002F04FFC4FF4407002F046FC45208DF877
:103C0000000001208DF8010000208DF80200012045
:103C10008DF80300684602F03CFC4FF4A06002F00F
:103C200033FCFF208DF8000001208DF801000020FA
:103C30008DF8020001208DF80300684602F029FC8F
:103C40004FF4A06002F020FC1D208DF80000012040
:103C50008DF8010000208DF8020001208DF803008E
:103C6000684602F016FC08BD00B5AFB001214FF068
:103C7000606004F05AFA0FF0ECF90FF06EFF00BF2D
:103C80000FF072FF0128FBD068460FF0EDF901201C
:103C90000090002007904FF400700A9000200B90D5
:103CA0000E9011901390149015904FF4806009902D
:103CB000002020904FF000702190001123900020F0
:103CC0002590269004202890C005299040122A9023
:103CD00080012B9040122C9040002E9001216846CC
:103CE0000FF072FA012153480FF055FF2FB000BDBD
:103CF00008B54FF4407002F0C7FB3D208DF800007E
:103D000000208DF801008DF8020001208DF80300DD
:103D1000684602F0BEFB08BD1CB501214D2004F031
:103D200004FA0121880304F044FA4FF480700090F3
:103D300003208DF8050002208DF8040000208DF886
:103D400006008DF8070069463B4803F089FD4FF0F7
:103D5000A0614FF4C00004F00CF9012004F0A1FDB3
:103D600003208DF8050002208DF8040000208DF856
:103D700006008DF807008620009069462E4803F063
:103D80006FFD0B2201212C4803F0EDFD0B220221D7
:103D9000294803F0E8FD0B220721274803F0E3FD43
:103DA000322000906946254803F05AFD0B2201217C
:103DB000224803F0D8FD0B220421204803F0D3FD54
:103DC0000B2205211D4803F0CEFD4FF4D04000909A
:103DD00069461B4803F044FD0B221146184803F0C6
:103DE000C2FD0B220D21164803F0BDFD0B220E2152
:103DF000134803F0B8FD1CBD1FB5FFF78DFFFFF79B
:103E000077FFFFF731FF684604F0FEF84FF0FF3010
:103E10000121002807DA0A07140E0A4A00F00F03EE
:103E20001B1FD45403E00A07130E074A135400BFA4
:103E30001FBD0000400001000000024000080240D9
:103E40000018024018ED00E000E400E000B587B083
:103E50000AF050FE0AF0BAFF1E4808F08DFF0690E7
:103E60006FF0FF0008F088FF05901B4808F084FF02
:103E700004901A481A49002204ABCDE900210290AF
:103E800005AA06A917480BF052F816480BF086F859
:103E900014480BF0CBF807B000BD10B511480FF077
:103EA00095F810BD10B504460F480068201AFA288E
:103EB00003D30D4804600BF0A4FF0C480068201ADF
:103EC00041F28831884203D3084804600EF039FB80
:103ED00010BD0000FD0A0A0A0101A8C00B2E01084E
:103EE000F92F010828C1002004010020080100204A
:103EF000704708B5044625686668A768D4F80C8042
:103F0000D4F81090D4F814A0D4F818B0E069009058
:103F10003BA019F033FA294645A019F02FFA314693
:103F200046A019F02BFA394647A019F027FA414666
:103F300048A019F023FA494649A019F01FFA514642
:103F40004AA019F01BFA594654A019F017FA5BA0C1
:103F5000009919F013FA5C4801685CA019F00EFA98
:103F60005948103801685CA019F008FA56480C3816
:103F700001685CA019F002FA5348083801685CA097
:103F800019F0FCF95048001D01685CA019F0F6F921
:103F90004D48143801685CA019F0F0F900BFFEE745
:103FA0004948B8300068704700BFFEE700BFFEE731
:103FB00000BFFEE770477047704710B516F090FCE1
:103FC00010BD704710B505F0DDFD0446524800787D
:103FD000401C51490870204605F0D8FD01E0FFF76C
:103FE0005CFF0FF088FC0028F9D140200FF0EAFDBB
:103FF0004FF480300FF0E6FD06F06DFA10BD0000C2
:104000000A0A5B48617264206661756C742068619D
:104010006E646C6572202D20616C6C206E756D6213
:1040200065727320696E206865785D0A0000000083
:104030005230203D2025780A000000005231203DFA
:104040002025780A000000005232203D2025780A01
:10405000000000005233203D2025780A00000000B7
:10406000523132203D2025780A0000004C52205B5E
:104070005231345D203D2025782020737562726FA7
:104080007574696E652063616C6C207265747572FD
:104090006E20616464726573730A00005043205B94
:1040A0005231355D203D202578202070726F677277
:1040B000616D20636F756E7465720A0050535220F3
:1040C0003D2025780A00000038ED00E042464152CC
:1040D000203D2025780A000043465352203D2025EC
:1040E000780A000048465352203D2025780A0000F7
:1040F00044465352203D2025780A00004146535241
:10410000203D2025780A00005343425F5348435323
:1041100052203D2025780A00590F002070B5044632
:104120000E46254628460AF00DFD70BD70B50546C1
:104130000C46002128460CF01FF9002128460CF0FF
:1041400020F9002128460CF019F920460AF0FAFC63
:1041500028460BF036FD70BD2DE9F04106460C46B1
:10416000B6F86E006168884202D2B6F86E5001E07F
:10417000606885B200232A46304621680DF0C4FCF1
:1041800007462FB92068284420606068401B6060A3
:10419000BDE8F08170B504460D461CB928460BF009
:1041A00010FD03E021462846FFF7D6FF002070BD32
:1041B0002DE9F04104460D4617462646706820B1A9
:1041C00031462846FFF7C8FF03E031462846FFF78F
:1041D000ADFF0020BDE8F08170B506460D46D54C18
:1041E0000BE03046616818F087FD28B9A0682860A8
:1041F000E0686860012070BD2468002CF1D10020C7
:10420000F9E72DE9FF4F2DED028B8FB017469B4646
:104210009FEDC90AB0EE408A002002900390119EE3
:10422000BBF1000F7ED1002F7CD0398912980BF0A2
:1042300075FD30680028F5D17D681122BFA12846A0
:1042400018F07EFD00286ED100BF00BF00BF00BF88
:10425000BF4802F0BFFA81464FEAE97109EB51719C
:104260004FEAE109642099FBF0F000F0FF0808EB49
:10427000C80000EB0810A9EB80000A2190FBF1FABE
:1042800008EBC80000EB0810A9EB80000AEB8A01DC
:10429000A0EB4100019008F13000C1B2AD4880F8B8
:1042A00006190AF13000C1B2AA4880F8071901982E
:1042B0003030C1B2A74880F8081900EE109AB8EE65
:1042C000C00A9FEDA51AC0EE010A9FEDA40A20EED8
:1042D000808A9FEDA30AC8EE000ABCEEE00A10EE49
:1042E000100A00F0FF08642018FB00F000EE100A2E
:1042F000B8EEC00A38EE400AF2EE040A80EE201A48
:10430000BCEEC10A10EE100A00F0FF0A642018FB90
:1043100000F000EE100AB8EEC00A78EE400A0AEB90
:104320008A0001E0BDE02EE0400000EE100AB8EE89
:10433000C00A30EEC00ABCEEC00A10EE100A0190AE
:1043400008F13000C1B2834880F8BA180AF1300091
:10435000C1B2804880F8BC1801983030C1B27D48A5
:1043600080F8BD1802A97FA0FFF736FF02983060E1
:104370000398706031461298FFF7EEFE7E4912985E
:104380000BF0FFFF8DE00F227CA1284618F0D8FC2F
:1043900000283CD10F244FF480517C4803F0D4FA1C
:1043A0004FF48051794803F0CFFA1CE0641C285D7B
:1043B0006C2818D1641C285D652814D1641C285D04
:1043C000642810D1A41C285D322804D14FF48051F8
:1043D0006E4803F0BBFA285D342804D14FF48051B5
:1043E0006A4803F0B3FA285D2028DFD102A968A04B
:1043F000FFF7F2FE02983060039870603146129821
:10440000FFF7AAFE5C4912980BF0BBFF49E00422BB
:1044100064A1284618F094FC00283ED100240FE047
:10442000281D005D202807D0281D005D0D2803D021
:10443000281D005D0A2802D10021281D0155641C99
:10444000282CEDDB002400200E9000BF281D0E99C3
:10445000405C04A908550E98401C0E90641C601E18
:10446000085C08B1282CF1DB02A904A8FFF7B4FE10
:1044700030B94E4816F022FB02A94DA0FFF7ACFE62
:10448000029830600398706031461298FFF764FE1E
:10449000394912980BF075FF03E031461298FFF787
:1044A00045FE38460AF0F4FDBBF1000F04D11FB9F8
:1044B00031461298FFF73AFE00200FB0BDEC028B98
:1044C00004B0BDE8F08F2DE9F04106460D461746D1
:1044D00008200AF0E9FB04461CB94FF0FF30BDE8A4
:1044E000F081002020606060214628460BF044FFE8
:1044F000334928460BF042FF324928460BF044FF6F
:104500000A22314928460BF044FF0020E7E710B5A6
:104510000BF02DFF044650222C4920460BF0FDFCE9
:10452000FF2120460BF06FFD0446294920460BF081
:104530002EFF10BD044D0208000000004745542026
:104540002F53544D3332463430374144430000003A
:1045500000200140100100200000484200000442F9
:104560000000C8422F53544D333246343037414453
:10457000432E68746D6C0000B1410008474554201B
:104580002F6D6574686F643D6765740000180240A4
:104590002F53544D3332463430374C45442E6874D3
:1045A0006D6C0000474554200000000060C10020F1
:1045B0002F4253434D61696E2E68746D6C0000008C
:1045C000034200081D410008954100087C4F020885
:1045D000C744000800B587B00121022003F0A5FD03
:1045E000042206219D4803F0BEF9042207219B48BE
:1045F00003F0B9F9C020019003208DF809000220D2
:104600008DF8080001208DF80A008DF80B0001A933
:10461000924803F025F90121480503F0B9FD002077
:10462000ADF810004BF6FF70ADF812000A20ADF89F
:1046300014004FF48060ADF816000001ADF81800CA
:104640008748039003A9874803F0EBF901218548C7
:1046500003F063FA07B000BD00BF0100A0F1010242
:1046600090B2FAD1704770B504460D4600BF0121E3
:10467000204603F05EFA1421204603F03EFB064676
:1046800000222946204603F06CFA1421204603F04C
:1046900034FB10F0020FEAD07349204603F07AFB96
:1046A0000121204603F051FA70BD2DE9F041074683
:1046B000884616461D46069C14B90120BDE8F081C7
:1046C00000BF4FF40031384603F04CFB0028F8D10E
:1046D0000121384603F04DFA0121384603F029FA4A
:1046E00000BF6249384603F01AFB0028F9D00022C7
:1046F0004146384603F035FA00BF5D49384603F0BD
:104700000EFB0028F9D03146384603F0AEFA00BF60
:104710005749891C384603F002FB0028F8D00121D4
:10472000384603F006FA00BF5049384603F0F7FA5E
:104730000028F9D001224146384603F012FA00BFA2
:104740004A49491C384603F0EAFA0028F8D018E034
:10475000012C07D10021384603F00BFA012138461D
:1047600003F0F3F900BF41493F31384603F0D7FA6F
:104770000028F8D0384603F07AFA28706D1C601EC5
:1047800084B2002CE4D10121384603F0F2F9002074
:1047900094E72DE9F04106460F4614461D460121D7
:1047A000304603F0C6F900BF3049304603F0B7FA8F
:1047B0000028F9D000223946304603F0D2F900BF74
:1047C0002B49304603F0ABFA0028F9D02146304699
:1047D00003F04BFA00BF2649891C304603F09FFACC
:1047E0000028F8D02946304603F03FFA00BF2049A0
:1047F000891C304603F093FA0028F8D00121304696
:1048000003F0A3F939463046FFF72DFF4FF47A70D5
:10481000FFF722FF0020BDE8F0812DE9F047804638
:10482000894615461C46089F00260BE014F8013BFC
:104830002A46691CCDB249464046FFF7AAFF08B197
:10484000701CC6B23800A7F101018FB2EED116B1CB
:104850000120BDE8F0870020FBE7000000040240D3
:1048600040420F000054004000040010010003000B
:10487000820007001CB50121042003F056FC4FF410
:104880004070009001208DF8040002208DF8050092
:104890006946724802F0E4FF0121082003F045FC5C
:1048A0000420009001208DF804008DF807000220FC
:1048B0008DF8050069466A4802F0D2FF01211020F8
:1048C00003F033FC4FF40040009001208DF8040009
:1048D0008DF8070002208DF805006946614802F056
:1048E000BFFF1E20009001208DF8040002208DF8EB
:1048F000050069465B4802F0B3FF4FF4F8400090B2
:1049000001208DF8040002208DF805006946554805
:1049100002F0A6FF0121202003F007FC07200090F1
:1049200001208DF8040002208DF8050069464E48EC
:1049300002F096FF0121402003F0F7FB4FF4805076
:10494000009001208DF8040002208DF805006946D2
:10495000464802F085FF0121082003F0E6FB08200D
:10496000009000208DF8040002208DF805006946B3
:104970003B4802F075FF7820009000208DF804007D
:1049800002208DF805006946374802F069FF4FF4B0
:10499000C070009000208DF8040002208DF8050002
:1049A0006946304802F05CFF4FF480612D4802F008
:1049B000CBFF4FF400612B4802F0C6FF4FF480514B
:1049C000284802F0C1FF4FF40051264802F0BCFF16
:1049D0004FF48041234802F0B7FF1CBD014601E0BF
:1049E000481E01460029FBD1704710B54FF4807175
:1049F0001A4802F0ABFF1E48FFF7F0FF4FF480713A
:104A0000164802F0A1FF1A48FFF7E8FF10BD10B5E5
:104A100004464FF48051154802F096FF4FF4805140
:104A2000124802F091FF012C06D0022C05D0032C75
:104A300009D0042C0ED107E00DE04FF480510B4853
:104A400002F084FF07E006E04FF48051074802F0CF
:104A50007DFF00E000BF00BF10BD00000008024065
:104A6000000C0240001002400014024000180240F6
:104A7000FFFF4F0010B50246002000BF20E000EB12
:104A80008003E94C54F82330934218D100EB8003A3
:104A900004EB83035B68CB7000EB800304EB8303C0
:104AA0009B680B7100EB800304EB8303DB684B71A5
:104AB00000EB800304EB83031B690B8010BD401CDB
:104AC0001228DCD300BFF9E700B589B0012102202C
:104AD00003F02BFB4FF48070079002208DF820002C
:104AE0008DF8210000208DF8220001208DF8230090
:104AF00007A9CE4802F0B4FE4FF40070079007A952
:104B0000CA4802F0ADFE09220821C84802F02BFF76
:104B100009221146C54802F026FF0121480603F08C
:104B200037FBC34801F05CFF04A802F081F80020C5
:104B30008DF816008DF817008DF818008DF8190003
:104B40008DF81A008DF81B008DF8120004A94FF49F
:104B5000FA70FFF78FFF04A9B54801F05AFF002053
:104B60008DF80A008DF80B0001208DF80C00002054
:104B7000ADF80000ADF80200ADF80400ADF8060095
:104B8000ADF8080001208DF80D00684601F0CFFF58
:104B900001220221A64802F0C9FA09B000BD00B501
:104BA00089B00121022003F0C0FA4FF48050079031
:104BB00002208DF820008DF8210000208DF82200C1
:104BC00001208DF8230007A9984802F049FE4FF410
:104BD0000050079007A9954802F042FE09220C21D7
:104BE000924802F0C0FE09220D21904802F0BBFE5F
:104BF00001214FF0C06003F0CBFA8E4801F0F0FEC7
:104C000004A802F015F800208DF816008DF81700A2
:104C10008DF818008DF819008DF81A008DF81B001A
:104C20008DF8120004A9FA20FFF724FF04A9814897
:104C300001F0EFFE0E208DF80A0000208DF80B0029
:104C400001208DF80C000020ADF80000ADF8020046
:104C5000ADF80400ADF80600ADF8080001208DF8AD
:104C60000D00684601F063FF01220221714802F045
:104C70005DFA09B000BD10B52DED028B002008EEE5
:104C8000100A04F07FFF04466B480078401C6A4914
:104C90000870204604F07AFF684A0021644802F058
:104CA0002AF90120664908706648006807F014F880
:104CB00008EE900A02215E4802F039FB05F00BFC79
:104CC000BDEC028B10BD2DE9F0412DED028B86B0BD
:104CD00005460F4690461E46002008EE100A042E98
:104CE00001D1029500E001958DF80C6000208DF84F
:104CF0000D0008208DF80E00002405E0395D0DF14F
:104D00000F000155601CC4B2082CF7DB4E4909782E
:104D100001EB81014D4A02EB8100142201A917F039
:104D2000B0FF49480078401CC0B2474908701E28AF
:104D300001DB0020087046480078401C4449087098
:104D400006B0BDEC028BBDE8F08110B52DED028BF5
:104D5000002008EE100A04F015FF044636480078DB
:104D6000401C35490870204604F010FF394A0021E4
:104D7000304802F0C0F83848006806F0ADFF08EE91
:104D8000900A01203549087002212A4802F0CFFA22
:104D900005F0A1FBBDEC028B10BD2DE9F0432DED1C
:104DA000028B85B00546884616461F46002008EE51
:104DB000100A042F01D1019500E000958DF80870CC
:104DC00000208DF809008DF80A60002406E018F82C
:104DD00004100DF10B000155601CC4B2B442F6DBA7
:104DE0001F49097801EB81011E4A02EB8100142260
:104DF000694617F046FF1A480078401CC0B21849AF
:104E000008701E2801DB0020087017480078401C3D
:104E1000154908701548006806F05EFF814605B028
:104E2000BDEC028BBDE8F083144D02080004024083
:104E30000064004000680040590F002094E4002006
:104E4000EA0E00202C000020EC0E0020BCE4002024
:104E5000E80E0020A8E4002040000020EB0E002017
:104E6000ED0E002014E70020E90E00204400002091
:104E700000B59BB00121764803F057F901210802E3
:104E800003F097F90D20009003208DF80400002016
:104E90008DF8070069466F4802F0E2FC7820009028
:104EA00003208DF8040000208DF8070069466A4849
:104EB00002F0D6FC032000908DF8040000208DF84D
:104EC00007006946654802F0CBFC654802F082FAAB
:104ED00000200290634803906348049000200590EE
:104EE00010200690002007904FF48060089040004A
:104EF000099080000A9040110B904FF440300C90C4
:104F000000200D9001200E9000200F90109002A91B
:104F1000534802F001FB00200121814042094FF07B
:104F2000E02303EB8202C2F8001100BF012210212E
:104F30004B4802F0BBFB0121494802F027FB00204F
:104F4000119012901390149011A801F049FB0020C9
:104F5000159001208DF858008DF859000020179009
:104F6000199010208DF8680015A93E484C3801F0C2
:104F700008FB01213B484C3801F037FC002301229B
:104F8000032138484C3801F087FB0023022204211A
:104F900034484C3801F080FB0023032205213148BE
:104FA0004C3801F079FB0023042206212D484C38AF
:104FB00001F072FB0023052208212A484C3801F039
:104FC0006BFB00230622092126484C3801F064FBC4
:104FD000002307220A2123484C3801F05DFB0023FF
:104FE00008220C211F484C3801F056FB00230922EF
:104FF0000D211C484C3801F04FFB012001F03BFB18
:10500000012001F027FB012116484C3801F0F8FB84
:10501000012114484C3801F0FFFA12484C3801F0D5
:1050200098FB1BB000BD10B52DED028B002008EEE3
:10503000100A0E490A4802F056FB30B10B490848E5
:1050400002F07CFB01200A490870BDEC028B10BD08
:105050000700400000080240000002400004024037
:10506000106402404C2001406CE9002020800010B8
:10507000F60E002000B589B00121092003F055F893
:105080000121102003F095F8F14804F059FA03A823
:1050900004F00AFB01A804F023FB02208DF8200095
:1050A0008DF8210000208DF8220001208DF82300CA
:1050B00002208DF820000002079007A9E54802F0C1
:1050C000CFFB07220921E34802F04DFC4FF480603A
:1050D000079002208DF8200007A9DE4802F0C0FBEF
:1050E00007220A21DB4802F03EFC01A9D84804F05F
:1050F000E7FA4FF4165003900020ADF81000ADF819
:105100001200ADF81400ADF818000C20ADF8160030
:1051100003A9CF4804F062FA012240F22551CC489D
:1051200004F09DFB002240F22441C94804F097FBA3
:10513000002240F22661C64804F091FB2520C649B2
:10514000087003204870022088700120C87008464B
:1051500001F09FF90121BE4804F0C8FA40F226612F
:10516000BB4804F0EFFB09B000BD70B52DED028B1C
:10517000002008EE100A04F005FD0546B748007847
:10518000401CB6490870284604F000FD40F2244156
:10519000AF4804F09FFB28B3AD480088C0B208EECA
:1051A000100AAB488088C0B208EE100A0120AC4952
:1051B0000870AC48006806F08FFD04460021AA483C
:1051C00002F0E4F9A84802F004FAC0F58060A749AB
:1051D00008604FF48061A44802F0F9F90121A24867
:1051E00002F0D4F940F22661994804F073FB38B11B
:1051F00040F22661964804F0A5FB00209C49087007
:1052000005F069F9BDEC028B70BD70B504460E4621
:10521000002505E06D1C4FF6FF70854200D303E0CA
:10522000934800780028F5D100BF0120904908700C
:105230008D483C300460B1B28B48303002F0C7F981
:1052400001218948303002F0A1F970BD10B5024645
:10525000002000BF09E0135C7D4CA38000BF7C4BA5
:105260001B8813F0400FFAD0401C8842F3D310BDC6
:1052700000B589B00121042002F057FF0121C804C4
:1052800002F086FF7B4804F05BF903A804F00CFAF7
:1052900001A804F025FA02208DF8210000208DF8E5
:1052A000220001208DF823008002079002208DF853
:1052B000200007A9704802F0D3FA4FF4006007906D
:1052C00002208DF8200007A96B4802F0C9FA0822D5
:1052D0000A21694802F047FB08220B21664802F0C8
:1052E00042FB01A9634804F0EBF94FF49650039098
:1052F0000020ADF81000ADF81200ADF81400ADF8C4
:1053000018000C20ADF8160003A95A4804F066F9FD
:10531000012240F22551574804F0A1FA002240F240
:105320002661544804F09BFA01224021514804F0C0
:105330008AFA012280214F4804F085FA40F2266162
:105340004C4804F0FFFA01214A4804F0CFF909B0B3
:1053500000BD70B5002404F015FC06463F480078F7
:10536000401C3E490870304604F010FC40F22551C4
:10537000404804F0AFFAE8B13E480088C4B23D4866
:10538000001D0088C4B201203C4908703C480068F8
:1053900006F0A2FC054600213348183802F0F6F862
:1053A00038480068401C3749086008460068401EBD
:1053B00035490C5440F226612E4804F08BFA38B17E
:1053C00040F226612B4804F0BDFA00202F490870F6
:1053D00005F081F870BD70B504460E46002505E065
:1053E0006D1C4FF6FF70854200D303E0274800781C
:1053F0000028F5D100BF0120244908701A480C3854
:105400000460B1B21848183802F0E1F801211648DA
:10541000183802F0BBF870BD30B50246002000BF5E
:1054200013E0145C134D2D1D2C802C1F2388248821
:1054300004F0400C03E00F4C238803F0400C0D4CAB
:10544000248814F0400FF6D0401C8842E9D330BDC8
:1054500000100140000002400A0F0020590F0020F8
:10546000F80E00200400002088640240FC0E00209A
:105470000E0F0020004C004000080240020F0020E8
:10548000CC000020040F0020ACED00200F0F002006
:1054900000B58FB00121880502F047FE884801F071
:1054A00099FF4FF000600090864801908648029076
:1054B000002003904FF480600490002005904FF48A
:1054C000806006900020079008904FF4807009904B
:1054D0004FF440300A9000200B900C900D900E90ED
:1054E0006946774802F018F8002000F0DDF8012145
:1054F000734802F04BF87248303001F06BFF4FF008
:10550000006000906F480190704802904020039026
:1055100000010490002005904FF480600690002068
:105520000790089009904FF440300A9000200B90AB
:105530000C900D900E9069466148303001F0ECFF00
:10554000012210215E48303002F0B0F800215C48A2
:10555000303002F01BF80FB000BD10B55C49584860
:10556000303002F0C0F860B159495548303002F08F
:10557000E5F800205749087000215148303002F00A
:1055800005F810BD00B58FB00121880502F0CDFDF2
:105590004B48183801F01EFF4FF0006000904E4855
:1055A00001904E480290002003904FF480600490D8
:1055B000002005904FF4806006900020079008902E
:1055C0004FF4807009904FF440300A9000200B9007
:1055D0000C900D900E9069463948183801F09CFFE8
:1055E000002000F061F801213548183801F0CEFFA5
:1055F0003348183001F0EEFE4FF00060009036485E
:105600000190374802904020039000010490002050
:1056100005904FF480600690002007900890099054
:105620004FF440300A9000200B900C900D900E909B
:1056300069462348183001F06FFF012210212048ED
:10564000183002F033F800211D48183001F09EFF99
:105650000FB000BD10B51E491948183002F043F8CC
:1056600060B11B491648183002F068F8002019494B
:10567000087000211248183001F088FF10BD10B5E5
:1056800013490F48183802F02EF860B110490C4841
:10569000183002F053F800200E4908700021084825
:1056A000183001F073FF10BD00F01F02012191407E
:1056B00042094FF0E02303EB8202C2F80011704769
:1056C0008864024004100140ACE90020ACF10020E5
:1056D000008000280E0F0020044C0040ACED00209C
:1056E000ACF50020204908607047204908607047E9
:1056F00070B505460C461C4800682044B0F5001FF4
:105700000AD2224629461848006800F0B9F816481F
:10571000006820441449086070BD70B505460C4609
:10572000124800682044B0F5001F0AD222462946DC
:105730000E48006800F01CF90C48006820440B4932
:10574000086070BD704700B50246FFF7FBFF1046CA
:10575000FFF7C8FF00BD704700B50246FFF7FBFF2B
:105760001046FFF7C2FF00BD100F0020140F0020ED
:1057700000B587B0FE4802F065FE0121C80302F0C3
:1057800007FD0121042002F0D0FC06220A21F9487D
:1057900002F0E9F806220B21F64802F0E4F80622AE
:1057A0000C21F44802F0DFF802208DF804000320F9
:1057B0008DF8050000208DF8060001208DF8070007
:1057C0004FF4E05000906946EA4802F049F802A917
:1057D000E74802F05DFE0121102002F0A6FC4FF424
:1057E0000070009001208DF8040000208DF8060064
:1057F00003208DF8050000208DF807006946DD487C
:1058000002F02EF80020ADF808004FF48270ADF8D9
:105810000A000020ADF80C00ADF80E00ADF8100045
:105820004FF40070ADF812002820ADF814000020ED
:10583000ADF816000720ADF8180002A9CC4802F018
:1058400027FE0121CA4802F001FF07B000BD10B5D4
:10585000044600BF0221C64802F0B8FF0028F9D074
:105860002146C34802F073FF00BF0121C04802F087
:10587000ADFF0028F9D0BE4802F066FFC0B210BDEF
:105880002DE9F04104460F46154600266019B0F593
:10589000001F00D215B90020BDE8F0814FF400715F
:1058A000B44802F053F80B20FFF7D1FFC4F30740D0
:1058B000FFF7CDFFC4F30720FFF7C9FFE0B2FFF702
:1058C000C6FFFF20FFF7C3FF002604E0FF20FFF71D
:1058D000BEFFB855761CAE42F8D34FF40071A54810
:1058E00002F032F80120D7E770B505460E460024D5
:1058F000022D1BD101029F4802F028F89F20FFF7DC
:10590000A6FF0020FFF7A3FF204304020020FFF7BB
:105910009EFF204304020020FFF799FF0443290261
:10592000944802F011F83460012070BD0DB1012DD2
:105930001CD14FF400718F4802F008F89020FFF757
:1059400086FF0020FFF783FF0020FFF780FF284637
:10595000FFF77DFF0020FFF77AFF04464FF4007148
:10596000844801F0F1FF34600120DEE70020DCE72D
:105970002DE9F04705460F4616464FF00009C84688
:105980000024A819401EB0F5001F00D216B900204F
:10599000BDE8F0874FF40071764801F0D7FF05208D
:1059A000FFF755FFFF20FFF752FF81464FF40071CC
:1059B000704801F0C9FF4FF400716E4801F0C6FF56
:1059C0005020FFF744FF4FF400716A4801F0BCFF1C
:1059D0004FF40071674801F0B9FF0120FFF737FF6E
:1059E0000020FFF734FF4FF40071624801F0ACFF74
:1059F000002440E04FF400715E4801F0A7FF06204C
:105A0000FFF725FF4FF400715A4801F09DFF4FF456
:105A10000071584801F09AFF0220FFF718FF29197A
:105A2000C1F30740FFF713FF2919C1F30720FFF760
:105A30000EFF2919C8B2FFF70AFF385DFFF707FF0D
:105A40004FF400714B4801F07FFF00BF4FF400712D
:105A5000484801F07BFF0520FFF7F9FEFF20FFF724
:105A6000F6FE80464FF40071424801F06DFFB8F138
:105A7000030FEBD0641CB442BCD34FF400713D481B
:105A800001F064FF0620FFF7E2FE4FF40071394891
:105A900001F05AFF4FF40071364801F057FF5020D3
:105AA000FFF7D5FE4FF40071324801F04DFF4FF47F
:105AB0000071304801F04AFF0120FFF7C8FE484658
:105AC000FFF7C5FE4FF400712A4801F03DFF0120A9
:105AD0005EE72DE9F0472DED028B04460E464FF0B0
